{
  "_format": "hh-sol-artifact-1",
  "contractName": "WavePortal",
  "sourceName": "contracts/WavePortal.sol",
  "abi": [
    {
      "inputs": [],
      "stateMutability": "nonpayable",
      "type": "constructor"
    },
    {
      "inputs": [],
      "name": "getTotalWaves",
      "outputs": [
        {
          "internalType": "uint256",
          "name": "",
          "type": "uint256"
        }
      ],
      "stateMutability": "view",
      "type": "function"
    },
    {
      "inputs": [],
      "name": "owner",
      "outputs": [
        {
          "internalType": "address",
          "name": "",
          "type": "address"
        }
      ],
      "stateMutability": "view",
      "type": "function"
    },
    {
      "inputs": [],
      "name": "wave",
      "outputs": [],
      "stateMutability": "nonpayable",
      "type": "function"
    }
  ],
  "bytecode": "0x608060405234801561001057600080fd5b5061003c60405180606001604052806025815260200161078a6025913961004160201b6101571760201c565b6101c4565b6100dd816040516024016100559190610142565b6040516020818303038152906040527f41304fac000000000000000000000000000000000000000000000000000000007bffffffffffffffffffffffffffffffffffffffffffffffffffffffff19166020820180517bffffffffffffffffffffffffffffffffffffffffffffffffffffffff83818316178352505050506100e060201b60201c565b50565b60008151905060006a636f6e736f6c652e6c6f679050602083016000808483855afa5050505050565b600061011482610164565b61011e818561016f565b935061012e818560208601610180565b610137816101b3565b840191505092915050565b6000602082019050818103600083015261015c8184610109565b905092915050565b600081519050919050565b600082825260208201905092915050565b60005b8381101561019e578082015181840152602081019050610183565b838111156101ad576000848401525b50505050565b6000601f19601f8301169050919050565b6105b7806101d36000396000f3fe608060405234801561001057600080fd5b50600436106100415760003560e01c80636fe15b44146100465780638da5cb5b146100505780639a2cdc081461006e575b600080fd5b61004e61008c565b005b6100586100e6565b60405161006591906103a8565b60405180910390f35b61007661010c565b6040516100839190610445565b60405180910390f35b600160008082825461009e919061047c565b925050819055506100e46040518060400160405280600d81526020017f2573206861732077617665642100000000000000000000000000000000000000815250336101f0565b565b600160009054906101000a900473ffffffffffffffffffffffffffffffffffffffff1681565b600061014f6040518060400160405280601781526020017f5765206861766520256420746f74616c2077617665732100000000000000000081525060005461028c565b600054905090565b6101ed8160405160240161016b91906103c3565b6040516020818303038152906040527f41304fac000000000000000000000000000000000000000000000000000000007bffffffffffffffffffffffffffffffffffffffffffffffffffffffff19166020820180517bffffffffffffffffffffffffffffffffffffffffffffffffffffffff8381831617835250505050610328565b50565b61028882826040516024016102069291906103e5565b6040516020818303038152906040527f319af333000000000000000000000000000000000000000000000000000000007bffffffffffffffffffffffffffffffffffffffffffffffffffffffff19166020820180517bffffffffffffffffffffffffffffffffffffffffffffffffffffffff8381831617835250505050610328565b5050565b61032482826040516024016102a2929190610415565b6040516020818303038152906040527f9710a9d0000000000000000000000000000000000000000000000000000000007bffffffffffffffffffffffffffffffffffffffffffffffffffffffff19166020820180517bffffffffffffffffffffffffffffffffffffffffffffffffffffffff8381831617835250505050610328565b5050565b60008151905060006a636f6e736f6c652e6c6f679050602083016000808483855afa5050505050565b61035a816104d2565b82525050565b600061036b82610460565b610375818561046b565b935061038581856020860161050e565b61038e81610570565b840191505092915050565b6103a281610504565b82525050565b60006020820190506103bd6000830184610351565b92915050565b600060208201905081810360008301526103dd8184610360565b905092915050565b600060408201905081810360008301526103ff8185610360565b905061040e6020830184610351565b9392505050565b6000604082019050818103600083015261042f8185610360565b905061043e6020830184610399565b9392505050565b600060208201905061045a6000830184610399565b92915050565b600081519050919050565b600082825260208201905092915050565b600061048782610504565b915061049283610504565b9250827fffffffffffffffffffffffffffffffffffffffffffffffffffffffffffffffff038211156104c7576104c6610541565b5b828201905092915050565b60006104dd826104e4565b9050919050565b600073ffffffffffffffffffffffffffffffffffffffff82169050919050565b6000819050919050565b60005b8381101561052c578082015181840152602081019050610511565b8381111561053b576000848401525b50505050565b7f4e487b7100000000000000000000000000000000000000000000000000000000600052601160045260246000fd5b6000601f19601f830116905091905056fea264697066735822122066e3fa41da3b3931cd373a3bc1078762502b593b862e6e89263d8a4c6210d43b64736f6c63430008040033596f20796f2c204920616d206120636f6e747261637420616e64204920616d20736d617274",
  "linkReferences": {},
  "deployedLinkReferences": {}
}